:04000000FEEF3FF0E0
:100800000053656E736F722050726F78696D696402
:100810006164002020202020202020202020202073
:1008200020202000446973743A25337500001E505F
:10083000D96EDA6ADFCFF6FF080EF76E0800F550C2
:10084000250AD8A426EF04F028EF04F08CEF04F07A
:100850001E50D96EDA6ADF2A000E4D6E000E4C6E05
:100860004CC050F04E684F681EC001F01FC002F02F
:1008700055EC06F001C04CF002C04DF04DBE45EF06
:1008800004F043EF04F04AEF04F050804C6C4D1E2E
:10089000D8B04D2A1E50D96EDA6ADF50246E24C0BB
:1008A000F6FF080EF76E0800F550750AD8A45BEF46
:1008B00004F05DEF04F086EF04F01F50D96EDA6AA1
:1008C000020EDF26DF5CD96EDA6ADECF20F0DECFE3
:1008D00021F01E50D96EDA6A2428DF6E7AEF04F018
:1008E0001DC015F020C016F021C017F0A6EC05F0D1
:1008F0009DEF04F024C0F6FF080EF76E0800F550D7
:10090000750AD8B470EF04F086EF04F01E50D96E6B
:10091000DA6ADF2A9DEF04F01E50D96EDA6ADFCF63
:10092000F6FF080EF76E0800F550016E026A1DC052
:1009300003F000EC06F086EF04F01200036E8990DD
:1009400003C001F0013A0F0E0116010E0116014617
:10095000014689500118FB0B0118896E03C001F094
:10096000050E026ED8900132022EB2EF04F0010E95
:10097000011601460146014689500118F70B01187E
:10098000896E03C001F0060E026ED8900132022E6D
:10099000C5EF04F0010E0116013A89500118EF0B62
:1009A0000118896E016A03AE01D0012A010E0116F9
:1009B000013A014689500118DF0B0118896E13ECCA
:1009C00009F003C001F0010E0116014601468950ED
:1009D0000118FB0B0118896E03C001F0D890013299
:1009E000010E011601460146014689500118F70B18
:1009F0000118896E03C001F0D8900132D8900132FD
:100A0000010E0116013A89500118EF0B0118896E89
:100A100003C001F0D8900132D8900132D890013251
:100A2000010E0116013A014689500118DF0B011829
:100A3000896E13EC09F0060E016E300EE82EFED71B
:100A4000012EFCD700D01200036E898003C001F094
:100A5000013A0F0E0116010E01160146014689509A
:100A60000118FB0B0118896E03C001F0050E026E20
:100A7000D8900132022E38EF05F0010E0116014622
:100A80000146014689500118F70B0118896E03C011
:100A900001F0060E026ED8900132022E4BEF05F0E7
:100AA000010E0116013A89500118EF0B0118896EE9
:100AB000016A03AE01D0012A010E0116013A014676
:100AC00089500118DF0B0118896E13EC09F003C07F
:100AD00001F0010E01160146014689500118FB0B79
:100AE0000118896E03C001F0D8900132010E011681
:100AF00001460146014689500118F70B0118896E1D
:100B000003C001F0D8900132D8900132010E0116D5
:100B1000013A89500118EF0B0118896E03C001F0EA
:100B2000D8900132D8900132D8900132010E0116CE
:100B3000013A014689500118DF0B0118896E13EC48
:100B400009F0420EE82EFED700D01200010E1A6EF8
:100B50004CC018F04DC019F0000E1C6E1F0E1B6E1D
:100B600000017F6BDAEF05F01B06D8A01C061B50B6
:100B7000600FD96EDA6A16C001F017C002F0000EDD
:100B8000046E0A0E036E73EC07F00150300FDF6E37
:100B90001A6A1806D8A0190616C001F017C002F08C
:100BA000000E046E0A0E036E39EC07F001C016F059
:100BB00002C017F01B501C10D8B4E1EF05F0E3EFB2
:100BC00005F0F4EF05F016501710D8A4EAEF05F081
:100BD000ECEF05F0B4EF05F01A50D8A4F2EF05F0F1
:100BE000F4EF05F0B4EF05F015C00EF01B50600FE8
:100BF0000F6E18C010F019C011F0F4EC06F01200DE
:100C00000350D8B406EF06F008EF06F010EF06F038
:100C10000350D8A40EEF06F010EF06F015EF06F023
:100C2000015028EC09F054EF06F00350D96EDA6A4F
:100C3000090ED926DE50DE10D8B421EF06F023EFDE
:100C400006F03CEF06F00350D96EDA6A090ED92699
:100C50000350E16EE26A020EE126DE50E65CE650E9
:100C6000800A086EDE50800A0858D8B03AEF06F0C5
:100C70003CEF06F054EF06F00350D96EDA6A020E2C
:100C8000D926DF50046E0350D96EDA6ADF5004248F
:100C9000D96EDA6A01C0DFFF0350D96EDA6A020E3C
:100CA000D926DE2A000EDD221200000E076E000E8D
:100CB000066E0150D96EDA6ADFCFF6FF080EF76EC6
:100CC0000800F5502A0AD8A468EF06F06AEF06F08B
:100CD0008FEF06F00150D96EDA6ADF2A0250D96E22
:100CE000DA6A020EDF26DF5CD96EDA6ADECF06F042
:100CF000DECF07F0A2EF06F00A0E0602F3CF03F0F4
:100D0000F4CF04F00702F350042605500324066EC6
:100D1000000E0420076E0150D96EDA6ADF2A0150F6
:100D2000D96EDA6ADFCFF6FF080EF76E0800F550CD
:100D3000D00F056E090E0564A0EF06F0A2EF06F0D5
:100D40007CEF06F006C001F007C002F01200700E42
:100D5000D36E0F0EC16E0F0EB46E926A936A896ADB
:100D60008A6A2BEC08F023EC09F0010E046E010EE8
:100D700088EC08F0010E046E0450D8A4080E056E2D
:100D8000D7EC07F0BDEC08F04B6E3B0E296E240E3D
:100D90002A6E4BC02BF02C6AA3EC08F0010E046EF7
:100DA000020E88EC08F0130E046E0450D8A4080E4E
:100DB000056ED7EC07F0010E046E020E88EC08F009
:100DC0003B0E046E056AD7EC07F0060E3A6E130E62
:100DD000396EAE0EE82EFED7392EFCD73A2EFAD752
:100DE000C2EF06F0FEEF3FF050A0F9EF06F0FBEF88
:100DF00006F001EF07F00FC009F00EC00AF06AEC30
:100E000008F011BE08EF07F006EF07F00CEF07F04F
:100E1000000E116E000E106E000E146E000E136E9A
:100E20001CEF07F0000E026E200E016E0EC003F0E4
:100E300000EC06F0134A142A1050135C1450800A78
:100E4000126E1150800A1258D8A029EF07F02BEF2C
:100E500007F012EF07F050B030EF07F032EF07F075
:100E600038EF07F00FC009F00EC00AF06AEC08F086
:100E70001200000E066E000E056E03500410D8B46A
:100E800044EF07F046EF07F06EEF07F0010E076E34
:100E90004EEF07F0D89003360436072A04AE53EF1E
:100EA00007F055EF07F04AEF07F0D8900536063601
:100EB0000350015C04500258D8A061EF07F063EFC3
:100EC00007F068EF07F00350015E0450025A0580F6
:100ED000D89004320332072E55EF07F005C001F019
:100EE00006C002F0120003500410D8B47AEF07F0E5
:100EF0007CEF07F0A0EF07F0010E056E84EF07F01E
:100F0000D89003360436052A04AE89EF07F08BEF3C
:100F100007F080EF07F00350015C04500258D8A09E
:100F200094EF07F096EF07F09AEF07F00350015E99
:100F30000450025AD89004320332052E8BEF07F08A
:100F400001C001F002C002F01200026E036A938039
:100F5000000E056E000E046ED8900336F0EC08F01B
:100F60000009D8B4B6EF07F0B8EF07F0B9EF07F013
:100F70000380044A052A05BEC7EF07F0055009E1C2
:100F8000080E045CD8A0C7EF07F0C9EF07F0ACEF7C
:100F900007F00250D8B4CFEF07F0D2EF07F0010E00
:100FA000D3EF07F0000EE2EC08F003501200EDEF73
:100FB00007F004C0F6FF05C0F7FFF86A070EF764F4
:100FC00003D00800F55005D0F6CFE1FFF7CFE2FFE0
:100FD000E75024EC05F0044A052A04C0F6FF05C0DA
:100FE000F7FFF86A070EF76403D00800F55005D044
:100FF000F6CFE1FFF7CFE2FFE7500009D8A403EFF7
:1010000008F005EF08F0D9EF07F01200026E000EAD
:10101000046E000E036E02BE10EF08F013EF08F02E
:10102000010E14EF08F0000EE2EC08F0D890023642
:10103000034A042A04BE26EF08F0045009E1080E12
:10104000035CD8A026EF08F028EF08F00BEF08F0BB
:10105000F0EC08F01200926A340E046EF20EE82EE4
:10106000FED7042EFCD7020E9EEC04F0280E9EEC58
:1010700004F00C0E9EEC04F0060E9EEC04F0010E43
:101080009EEC04F0060E046E300EE82EFED7042E01
:10109000FCD700D0120026C028F057EF08F025C07A
:1010A0001DF0280E1E6E27C01FF017EC04F028C09C
:1010B000F6FF080EF76E0800F5500009D8A463EF9C
:1010C00008F065EF08F04FEF08F0000E266E000EF6
:1010D000256E1200000E0D6E000E0C6E79EF08F0FA
:1010E0000BC001F0026A0AC003F000EC06F00C4AE3
:1010F0000D2A09500C24D96EDA6ADF500B6E0B50A2
:10110000D8A485EF08F087EF08F070EF08F0120020
:10111000056E0504D8B48FEF08F091EF08F097EF53
:1011200008F0000E076EC00E066E9BEF08F0000E72
:10113000076E800E066E06C008F0040408260850EC
:101140009EEC04F012002B0E2D6E29C02EF0000E26
:10115000316E000E306E000E386E000E376E2E0EA1
:10116000256E2AC026F02D0E276E4BEC08F0295074
:101170003024D96EDA6ADF6A120008EC09F0520EE8
:1011800006EC08F0000E06EC08F008EC09F0530E2F
:1011900006EC08F0010EA5EC07F0066EFDEC08F079
:1011A0000650120000EE60F0200EEE6AE806FDE147
:1011B000506A4F6A4E6A4D6A4C6A000EF86E000122
:1011C000A7EF06F0016E939001B002D08A9001D093
:1011D0008A801EEC09F08A821EEC09F08A921200C5
:1011E00093801EEC09F08A821EEC09F0000E81B09B
:1011F000010E016E8A920150120093908A901EECAB
:1012000009F08A821EEC09F08A801EEC09F01200B7
:1012100093908A8093928A821EEC09F08A901EEC49
:1012200009F08A92120089821A0EE82EFED700D0A9
:1012300089921A0EE82EFED700D01200060EE82E74
:10124000FED700D01200938093828A808A82120097
:0212500012008A
:047FFC00D2EF08F0C8
:020000040030CA
:0800000000081F1EFF8181FFB3
:00000001FF
