:04000000FEEF3FF0E0
:10080000004573706572616E646F204750532E2EE1
:100810002E004C6F6E3A20252E3466004C61743ADF
:1008200020252E346600494E46494E4954590069E8
:100830006E66696E69747900244750474741002409
:100840004750524D43004E414E00696E66006E6146
:050850006E002C000009
:10085600000E316E000E306E28502910D8B436EFD7
:1008660004F038EF04F044EF04F028C0D9FF29C0A3
:10087600DAFF26C0DEFF27C0DDFF44EF04F0264A7C
:10088600272A26C0D9FF27C0DAFF200EDE18D8B4E3
:100896004FEF04F052EF04F0010E53EF04F0000E98
:1008A600386E396A38503910D8A45CEF04F05EEF20
:1008B60004F042EF04F026C0D9FF27C0DAFFDF506C
:1008C6002A6E2A50386E396A38C02BF0F70E2B265E
:1008D600040E2B6471EF04F073EF04F042EF04F0A2
:1008E600356A2D0E38183910D8A47CEF04F07EEF47
:1008F60004F084EF04F0010E356E264A272A90EFA5
:1009060004F02B0E38183910D8A48CEF04F08EEFB3
:1009160004F090EF04F080EF04F03E6A94EF04F0E8
:100926003E2A3E502624D96E000E2720DA6EDF506E
:10093600D8B4A0EF04F0A2EF04F0D4EF04F03E50D8
:100946002624D96E000E2720DA6EDF502A6E3E501E
:100956002F0F2B6E2BC0F6FF080EF76E0800F55012
:100966002A18D8B4B9EF04F0BBEF04F093EF04F003
:100976003E502624D96E000E2720DA6EDF502A6EEE
:100986003E50260F2B6E2BC0F6FF080EF76E0800A2
:10099600F5502A18D8B4D2EF04F0D4EF04F093EF50
:1009A60004F0020E3E64DAEF04F0DCEF04F008EF28
:1009B60005F0000E3A6E000E3B6E800E3C6E7F0E0A
:1009C6003D6E28502910D8B4EBEF04F0EDEF04F09B
:1009D6000EEF0CF0080E3E18D8B4F4EF04F0F6EF64
:1009E60004F0F8EF04F0030E3E6E3E5026242A6E05
:1009F600000E27202B6E28C0D9FF29C0DAFF2AC097
:100A0600DEFF2BC0DDFF0EEF0CF03E6A0CEF05F0AB
:100A16003E2A3E502624D96E000E2720DA6EDF507D
:100A2600D8B418EF05F01AEF05F04CEF05F03E507C
:100A36002624D96E000E2720DA6EDF502A6E3E502D
:100A46004E0F2B6E2BC0F6FF080EF76E0800F55002
:100A56002A18D8B431EF05F033EF05F00BEF05F0A7
:100A66003E502624D96E000E2720DA6EDF502A6EFD
:100A76003E50460F2B6E2BC0F6FF080EF76E080091
:100A8600F5502A18D8B44AEF05F04CEF05F00BEFF5
:100A960005F0030E3E18D8A453EF05F055EF05F008
:100AA600C0EF05F0530E016EE2EC23F001C03AF000
:100AB60002C03BF003C03CF004C03DF028502910B2
:100AC600D8B468EF05F06AEF05F00EEF0CF03E5073
:100AD6002626000E272226C0D9FF27C0DAFF280EB9
:100AE600DE18D8A479EF05F07BEF05F0B6EF05F038
:100AF6003E6A7FEF05F03E2A3E502624D96E000E50
:100B06002720DA6EDF50D8B48BEF05F08DEF05F0B5
:100B16009CEF05F03E502624D96E000E2720DA6E93
:100B2600290EDE18D8A49AEF05F09CEF05F07EEFAB
:100B360005F03E502624D96E000E2720DA6E290EC7
:100B4600DE18D8A4A9EF05F0ABEF05F0B6EF05F077
:100B56003E502A6E2B6A010E2A26000E2B222A50A0
:100B660026262B50272228C0D9FF29C0DAFF26C007
:100B7600DEFF27C0DDFF0EEF0CF0000E396E000E13
:100B8600386E000E3A6E000E3B6E000E3C6E000E86
:100B96003D6E326A336A000E376E000E366E3E6A5E
:100BA600D6EF05F03E2A3E502624D96E000E2720A9
:100BB600DA6E300EDE18D8B4E3EF05F0E5EF05F097
:100BC600D5EF05F03E50D8B4EBEF05F0EDEF05F0AC
:100BD60089EF09F03E502624D96E000E2720DA6EE2
:100BE600780EDE18D8B4FAEF05F0FCEF05F00BEF3F
:100BF60006F03E502624D96E000E2720DA6E580ED7
:100C0600DE18D8A409EF06F00BEF06F089EF09F01D
:100C16003E5026242A6E000E27202B6E010E2A2413
:100C2600D96E000E2B20DA6EDF502C6E2C50016E22
:100C3600026A03EC22F001500210D8A425EF06F058
:100C460027EF06F03EEF06F03E5026242A6E000EF1
:100C560027202B6E010E2A24D96E000E2B20DA6E69
:100C66002E0EDE18D8B43AEF06F03CEF06F03EEF53
:100C760006F0ADEF08F03EC032F03E2A3E50262484
:100C8600D96E000E2720DA6E300EDE18D8B44EEF7D
:100C960006F050EF06F040EF06F03E502624D96EDF
:100CA600000E2720DA6E700EDE18D8B45DEF06F05F
:100CB6005FEF06F0CBEF07F03E502624D96E000E0C
:100CC6002720DA6E500EDE18D8A46CEF06F06EEF11
:100CD60006F070EF06F0CBEF07F03E502624D96EF3
:100CE600000E2720DA6E2E0EDE18D8A47DEF06F051
:100CF6007FEF06F085EF06F035883EC033F03E2ADA
:100D0600CBEF07F03E502624D96E000E2720DA6E70
:100D1600DF502A6E2A50016E026A03EC22F001505F
:100D26000210D8B499EF06F09BEF06F0ADEF08F08D
:100D3600346A3E502624D96E000E2720DA6EDF5024
:100D46002A6E2A50016E026AA4EC23F001500210AA
:100D5600D8B4B0EF06F0B2EF06F0BDEF06F03E50A5
:100D66002624D96E000E2720DA6EDF50D00F346E9F
:100D7600CDEF06F03E502624D96E000E2720DA6EFF
:100D8600DF502A6E2A50016E026A76EC23F001507B
:100D9600C90F346E39BEDBEF06F0395007E1080E95
:100DA600385CD8B0D9EF06F0DBEF06F0FAEF06F0C4
:100DB600385007082A6ED8902A36D8902A3634C07A
:100DC6002BF02C6A2D6A2E6A2A2AEFEF06F0D890AD
:100DD6002B362C362D362E362A2EEAEF06F02B50E1
:100DE6003A122C503B122D503C122E503D12384ACE
:100DF600392A040E3626000E37223E2A50EF06F018
:100E06003E502624D96E000E2720DA6E300EDE18EC
:100E1600D8A410EF07F012EF07F021EF07F03850D3
:100E26003910D8A419EF07F01BEF07F021EF07F0F0
:100E3600FC0E3626FF0E3722CAEF07F03E50262458
:100E4600D96E000E2720DA6EDF502A6E2A50016E08
:100E5600026A03EC22F001500210D8B435EF07F015
:100E660037EF07F09AEF07F0346A3E502624D96E22
:100E7600000E2720DA6EDF502A6E2A50016E026AB3
:100E8600A4EC23F001500210D8B44CEF07F04EEF5B
:100E960007F059EF07F03E502624D96E000E2720A2
:100EA600DA6EDF50D00F346E69EF07F03E5026241D
:100EB600D96E000E2720DA6EDF502A6E2A50016E98
:100EC600026A76EC23F00150C90F346E39BE77EF13
:100ED60007F0395007E1080E385CD8B075EF07F017
:100EE60077EF07F096EF07F0385007082A6ED8908C
:100EF6002A36D8902A3634C02BF02C6A2D6A2E6AF0
:100F06002A2A8BEF07F0D8902B362C362D362E3624
:100F16002A2E86EF07F02B503A122C503B122D50FA
:100F26003C122E503D12384A392ACAEF07F03E507D
:100F36002A6E2B6A33502C6E2D6A010E2C26000E5B
:100F46002D222A502C1807E12B502D18D8A4AEEFCD
:100F560007F0B0EF07F0D2EF07F033502A6E2B6A96
:100F660032502C6E2D6A010E2C26000E2D222A5090
:100F76002C1807E12B502D18D8A4C4EF07F0C6EFA4
:100F860007F0D2EF07F032C03EF0ADEF08F03E2A90
:100F960035B8D0EF07F0D2EF07F003EF07F03E5079
:100FA6002626000E27223E6A26C0D9FF27C0DAFF72
:100FB600700EDE18D8B4E2EF07F0E4EF07F0F3EFB7
:100FC60007F026C0D9FF27C0DAFF500EDE18D8B4C6
:100FD600EFEF07F0F1EF07F0F3EF07F0ADEF08F0F2
:100FE6003E2A20EE01F02650D9262750DA222B0E73
:100FF600DE18D8A401EF08F003EF08F006EF08F0BA
:101006003E2A17EF08F020EE01F02650D926275089
:10101600DA222D0EDE18D8A413EF08F015EF08F02B
:1010260017EF08F035863E2A3E502624D96E000E6C
:101036002720DA6EDF502A6E2A50016E026AA4EC6F
:1010460023F001500210D8A42BEF08F02DEF08F082
:1010560030EF08F03E6AADEF08F03E502626000E4F
:1010660027223E6A38EF08F03E2A3E502624D96EE3
:10107600000E2720DA6E300EDE18D8B445EF08F0E1
:1010860047EF08F037EF08F0000E396E000E386EA5
:1010960076EF08F03E50D8B453EF08F055EF08F05D
:1010A60063EF08F038C001F039C002F0000E046E9C
:1010B6000A0E036ECFEC23F001C038F002C039F0FF
:1010C6003E502624D96E000E2720DA6EDF502A6E97
:1010D600D00E2A242B6E2C6AFF0E2C222B5038267B
:1010E6002C5039223E2A3E502624D96E000E272047
:1010F600DA6EDF502A6E2A50016E026AA4EC23F0E3
:1011060001500210D8A48AEF08F08CEF08F04DEFDA
:1011160008F03E50D8A492EF08F094EF08F09EEF46
:1011260008F0000E266E000E276E000E286E000ECA
:10113600296E44EF0CF035A6A3EF08F0A5EF08F0F2
:10114600A9EF08F0386C391ED8B0392A385036263F
:101156003950372228502910D8B4B4EF08F0B6EF2A
:1011660008F0C4EF08F03E5026242A6E000E272011
:101176002B6E28C0D9FF29C0DAFF2AC0DEFF2BC09C
:10118600DDFF3A503B103C103D10D8A4CDEF08F0DF
:10119600CFEF08F0D9EF08F0000E266E000E276E8E
:1011A600000E286E000E296E44EF0CF0FF0E3A1466
:1011B6002A6E000E3B142B6E000E3C142C6E000E95
:1011C6003D142D6E2D502C102B1009E1810E2A5C3A
:1011D600D8A0F0EF08F0F2EF08F004EF09F0000EE7
:1011E6003A26010E3B22000E3C22000E3D2204EF61
:1011F60009F0D8903A363B363C363D363606D8A00E
:1012060037063DAE09EF09F00BEF09F0FCEF08F0E9
:1012160037AE17EF09F0830E365CFF0E3758D8B09D
:1012260017EF09F019EF09F025EF09F0FF0E376EF9
:10123600810E366E000E3A6E000E3B6E000E3C6E50
:10124600000E3D6E810E361808E13728D8B42EEF11
:1012560009F030EF09F038EF09F0D8903A363B360E
:101266003C363D363606D8A0370637BE44EF09F081
:10127600375009E1800E365CD8A044EF09F046EFFE
:1012860009F058EF09F0000E3A6E000E3B6E000EA4
:101296003C6E000E3D6E000E376E800E366E000EF2
:1012A600316E220E306E0EEF0CF0090E2A6ED890BB
:1012B6003D323C323B323A322A2E5AEF09F0FF0ECB
:1012C6003A16FF0E3B167F0E3C16000E3D167F0E9D
:1012D60036242A6E000E37202B6EFF0E2A142C6E33
:1012E6002D6A2E6A2F6A170ED8902C362D362E367A
:1012F6002F36E82E77EF09F02C503A122D503B127C
:101306002E503C122F503D120EEF0CF035B88EEFDA
:1013160009F090EF09F0A2EF09F026C0D9FF27C027
:10132600DAFF2E0EDE18D8A49BEF09F09DEF09F028
:10133600A2EF09F03588264A272A89EF09F026C048
:10134600D9FF27C0DAFFDF502A6E2A50016E026AE3
:10135600A4EC23F001500210D8A4B4EF09F0B6EFC4
:1013660009F0B8EF09F006EF0AF03582090E3818D1
:101376003910D8B4C1EF09F0C3EF09F0F9EF09F05D
:1013860035A8C8EF09F0CAEF09F0CDEF09F0360627
:10139600D8A03706384A392A3AC001F03BC002F0D5
:1013A6003CC003F03DC004F00A0E056E000E066E4A
:1013B600000E076E000E086E4EEC20F001C03AF0EB
:1013C60002C03BF003C03CF004C03DF026C0D9FF8C
:1013D60027C0DAFFDF502A6ED00E2A262A503A2678
:1013E600000E3B223C223D2202EF0AF035B8FEEF0A
:1013F60009F000EF0AF002EF0AF0364A372A264AC9
:10140600272A89EF09F0000E396E000E386E26C0C5
:10141600D9FF27C0DAFF650EDE18D8B415EF0AF03B
:1014260017EF0AF024EF0AF026C0D9FF27C0DAFF2B
:10143600450EDE18D8A422EF0AF024EF0AF0AAEF30
:101446000AF0264A272A26C0D9FF27C0DAFF2D0E22
:10145600DE18D8A431EF0AF033EF0AF038EF0AF0BD
:101466003586264A272A47EF0AF026C0D9FF27C025
:10147600DAFF2B0EDE18D8A443EF0AF045EF0AF088
:1014860047EF0AF0264A272A26C0D9FF27C0DAFFE7
:10149600300EDE18D8B452EF0AF054EF0AF045EFDA
:1014A6000AF0346A71EF0AF026C0D9FF27C0DAFFC6
:1014B600DF502A6ED00E2A260A0E3802F3CF2BF002
:1014C600F4CF2CF03902F3502C262A502B24386EF8
:1014D600000E2C20396E264A272A342A26C0D9FF28
:1014E60027C0DAFFDF502A6E2A50016E026AA4EC8A
:1014F60023F001500210D8A483EF0AF085EF0AF01A
:1015060057EF0AF03450D8A48BEF0AF08DEF0AF0AB
:101516009FEF0AF02FEEFFF02650D9262750DA2249
:10152600300EDE18D8B49AEF0AF09CEF0AF09FEF5F
:101536000AF02606D8A0270635A6A4EF0AF0A6EFDD
:101546000AF0AAEF0AF0386C391ED8B0392A38509A
:1015560036263950372228502910D8B4B5EF0AF06C
:10156600B7EF0AF0C6EF0AF035A2BCEF0AF0BEEFFD
:101576000AF0C6EF0AF028C0D9FF29C0DAFF26C054
:10158600DEFF27C0DDFF3AC001F03BC002F03CC0E1
:1015960003F03DC004F0000ED7EC1AF001C03AF09B
:1015A60002C03BF003C03CF004C03DF03AC001F07D
:1015B6003BC002F03CC003F03DC004F0000E056ED7
:1015C600000E066E000E076E000E086E66EC1FF02B
:1015D600D8A0F0EF0AF0F2EF0AF0FCEF0AF0000EE6
:1015E600266E000E276E000E286E000E296E44EF42
:1015F6000CF037BE03EF0BF001EF0BF091EF0BF0A1
:10160600366C371ED8B0372A27EF0BF03AC001F0F8
:101616003BC002F03CC003F03DC004F0F90E056E7D
:10162600020E066E150E076E500E086EADEC15F026
:1016360001C03AF002C03BF003C03CF004C03DF0EC
:10164600F60E3626FF0E372237BE35EF0BF0375033
:1016560007E10A0E365CD8B033EF0BF035EF0BF02E
:1016660009EF0BF054EF0BF03AC001F03BC002F06B
:101676003CC003F03DC004F0000E056E000E066E81
:10168600200E076E410E086EADEC15F001C03AF063
:1016960002C03BF003C03CF004C03DF03606D8A0C3
:1016A600370636503710D8A45BEF0BF05DEF0BF022
:1016B60037EF0BF03AC01AF03BC01BF03CC01CF0F1
:1016C6003DC01DF0000E1E6E000E1F6E800E206EB9
:1016D600000E216EEAEC1CF0D8B074EF0BF076EF3A
:1016E6000BF00EEF0CF035A07BEF0BF07DEF0BF05F
:1016F60087EF0BF0000E266E000E276E800E286E0A
:10170600800E296E44EF0CF0000E266E000E276E3A
:10171600800E286E000E296E44EF0CF037BE9CEF4B
:101726000BF0375008E13604D8A09CEF0BF09EEF83
:101736000BF00EEF0CF0BEEF0BF03AC001F03BC021
:1017460002F03CC003F03DC004F0F90E056E020E37
:10175600066E150E076E500E086E9AEC13F001C059
:101766003AF002C03BF003C03CF004C03DF0F60E78
:101776003626FF0E3722375007E10A0E365CD8B000
:10178600C7EF0BF0C9EF0BF0A0EF0BF0E8EF0BF093
:101796003AC001F03BC002F03CC003F03DC004F08B
:1017A600000E056E000E066E200E076E410E086EC8
:1017B6009AEC13F001C03AF002C03BF003C03CF0D3
:1017C60004C03DF03606D8A0370636503710D8A4E8
:1017D600EFEF0BF0F1EF0BF0CBEF0BF0FF0E1A6E05
:1017E600FF0E1B6E7F0E1C6E7F0E1D6E3AC01EF026
:1017F6003BC01FF03CC020F03DC021F0EAEC1CF0DD
:10180600D8B008EF0CF00AEF0CF00EEF0CF0000E5B
:10181600316E220E306E30503110D8B415EF0CF008
:1018260017EF0CF023EF0CF030C058F031C059F030
:10183600000E3A6E000E3B6E800E3C6E7F0E3D6EC5
:1018460035A028EF0CF02AEF0CF03CEF0CF03AC074
:1018560001F03BC002F03CC003F03DC004F03FEC99
:1018660023F001C03AF002C03BF003C03CF004C0D4
:101876003DF03AC026F03BC027F03CC028F03DC002
:1018860029F012000001816B33C084F034C085F06A
:1018960035C086F036C087F087BF56EF0CF054EFA0
:1018A6000CF06AEF0CF0010E816F84C001F085C068
:1018B60002F086C003F087C004F03FEC23F001C0BD
:1018C60084F002C085F003C086F004C087F0000EE5
:1018D6000001836F000E826FE4C071F0E5C072F004
:1018E6008151D8B479EF0CF07BEF0CF08FEF0CF050
:1018F6008151D8A481EF0CF083EF0CF089EF0CF046
:10190600000E676F2B0E666F8DEF0CF0000E676F83
:101916002D0E666F66C081F084C001F085C002F0AE
:1019260086C003F087C004F06CEC1DF001040210C1
:10193600D8A4A0EF0CF0A2EF0CF0D5EF0CF000014C
:101946008151D8B4A9EF0CF0ABEF0CF0B4EF0CF06A
:1019560081C09AF17107D8A07207000E836F010E3D
:10196600826F9A0E8225016E010E8321026E4A0E47
:10197600036E0350D8A4080E046E2DEC22F000016D
:10198600FD0E7127FF0E722332C00FF09A0E106EF5
:10199600010E116E71C012F072C013F0B8EC20F097
:1019A6003EEF11F084C001F085C002F086C003F05E
:1019B60087C004F06CEC1DF001500210D8A4E6EFCD
:1019C6000CF0E8EF0CF00AEF0DF000018151D8B4ED
:1019D600EFEF0CF0F1EF0CF0FAEF0CF081C09AF19A
:1019E6007107D8A07207000E836F010E826F9A0EE0
:1019F6008225016E010E8321026E4E0E036E035088
:101A0600D8A4080E046E2DEC22F0C2EF0CF0000EE6
:101A16000001886F000E896F800E8A6F3F0E8B6FF4
:101A2600000E706F000E6F6F84C001F085C002F06B
:101A360086C003F087C004F0000E056E000E066E29
:101A4600000E076E000E086E66EC1FF0D8B02EEF83
:101A56000DF030EF0DF00FEF0EF03DEF0DF073C00F
:101A660088F074C089F075C08AF076C08BF00001EA
:101A76006F4B702B88C001F089C002F08AC003F05A
:101A86008BC004F0000E056E000E066E200E076E6B
:101A9600410E086E9AEC13F001C073F002C074F0A8
:101AA60003C075F004C076F000017351845D016EC9
:101AB60074518559026E75518659036E7651875950
:101AC600046ED8EC21F004BE74EF0DF00450031040
:101AD600021009E1020E015CD8A074EF0DF076EF5A
:101AE6000DF032EF0DF073C01AF074C01BF075C024
:101AF6001CF076C01DF084C01EF085C01FF086C0A5
:101B060020F087C021F0EAEC1CF0D8A08DEF0DF094
:101B16008FEF0DF032EF0DF000018851845D016EFC
:101B260089518559026E8A518659036E8B518759A0
:101B3600046ED8EC21F004BEAEEF0DF00450031095
:101B4600021007E1020E015CD8B0ACEF0DF0AEEF6B
:101B56000DF0F6EF0DF088C084F089C085F08AC0DC
:101B660086F08BC087F00FEF0EF088C001F089C0B9
:101B760002F08AC003F08BC004F0000E056E000E62
:101B8600066E200E076E410E086EADEC15F001C014
:101B960088F002C089F003C08AF004C08BF000010F
:101BA6006F07D8A070078851845D016E89518559E9
:101BB600026E8A518659036E8B518759046ED8EC92
:101BC60021F004BEF4EF0DF004500310021007E1FB
:101BD600020E015CD8B0F2EF0DF0F4EF0DF0F6EF67
:101BE6000DF0AEEF0DF084C01AF085C01BF086C074
:101BF6001CF087C01DF088C01EF089C01FF08AC087
:101C060020F08BC021F0EAEC1CF0D8A00DEF0EF00E
:101C16000FEF0EF0B8EF0DF037C069F069C06AF04B
:101C26000001E7BF19EF0EF01BEF0EF021EF0EF0EB
:101C3600E6C062F0E7C063F025EF0EF0000E636FBA
:101C4600060E626F62C06DF063C06EF06D4B6E2B58
:101C5600660E6A19D8A432EF0EF034EF0EF054EF88
:101C66000EF070BF3BEF0EF039EF0EF047EF0EF0BF
:101C7600000E886F000E896F800E8A6F3F0E8B6F85
:101C8600000E706F000E6F6F670E6919D8B44EEFB5
:101C96000EF050EF0EF054EF0EF06F516D277051AD
:101CA6006E23000E786F000E776F84C079F085C0C2
:101CB6007AF086C07BF087C07CF088C073F089C05C
:101CC60074F08AC075F08BC076F0E5EF0EF079C03F
:101CD60001F07AC002F07BC003F07CC004F088C03B
:101CE60005F089C006F08AC007F08BC008F0ADEC9D
:101CF60015F001C01AF002C01BF003C01CF004C0AE
:101D06001DF0E7EC18F01AC07DF01BC07EF01CC079
:101D16007FF01DC080F07DC001F07EC002F07FC064
:101D260003F080C004F067EC1CF001C06BF002C049
:101D36006CF079C02AF07AC02BF07BC02CF07CC006
:101D46002DF07DC005F07EC006F07FC007F080C094
:101D560008F088C001F089C002F08AC003F08BC089
:101D660004F09AEC13F001C02EF002C02FF003C06D
:101D760030F004C031F0A3EC22F02AC079F02BC079
:101D86007AF02CC07BF02DC07CF088C001F089C0B1
:101D960002F08AC003F08BC004F0000E056E000E40
:101DA600066E200E076E410E086EADEC15F001C0F2
:101DB60088F002C089F003C08AF004C08BF00001ED
:101DC600774B782B6D51775D7851800A386E6E515E
:101DD600800A3858D8A0F2EF0EF0F4EF0EF06AEF52
:101DE6000EF088C001F089C002F08AC003F08BC0F3
:101DF60004F0000E056E000E066EA00E076E400E75
:101E0600086E9AEC13F001C07DF002C07EF003C0AC
:101E16007FF004C080F079C01AF07AC01BF07BC056
:101E26001CF07CC01DF07DC01EF07EC01FF07FC080
:101E360020F080C021F0EAEC1CF0D8B025EF0FF0BE
:101E460027EF0FF032EF0FF0000E00017D6F000E4E
:101E56007E6F000E7F6F000E806F5BEF0FF079C014
:101E660001F07AC002F07BC003F07CC004F07DC0B4
:101E760005F07EC006F07FC007F080C008F066EC73
:101E86001FF0D8A049EF0FF04BEF0FF05BEF0FF00C
:101E960000016BB151EF0FF053EF0FF05BEF0FF056
:101EA600000E7D6F000E7E6F000E7F6F000E806F3E
:101EB60084C01AF085C01BF086C01CF087C01DF0D8
:101EC6007DC01EF07EC01FF07FC020F080C021F0D4
:101ED6003FEC11F01AC079F01BC07AF01CC07BF001
:101EE6001DC07CF079C01AF07AC01BF07BC01CF0D4
:101EF6007CC01DF0000E056E000E066E200E076EED
:101F0600410E086E73C001F074C002F075C003F094
:101F160076C004F09AEC13F001C01EF002C01FF068
:101F260003C020F004C021F0EAEC1CF0D8A09EEF1C
:101F36000FF0A0EF0FF0C9EF0FF000016F4B702B01
:101F460073C001F074C002F075C003F076C004F0EF
:101F5600000E056E000E066E200E076E410E086E10
:101F66009AEC13F001C073F002C074F003C075F070
:101F760004C076F0660E00016A19D8A4C5EF0FF00A
:101F8600C7EF0FF0C9EF0FF06D4B6E2B73C088F0E3
:101F960074C089F075C08AF076C08BF06FC060F0AF
:101FA60070C061F00001686B000E656F000E646F13
:101FB600000E786F000E776FC6EF10F079C001F053
:101FC6007AC002F07BC003F07CC004F088C005F044
:101FD60089C006F08AC007F08BC008F0ADEC15F09A
:101FE60001C01AF002C01BF003C01CF004C01DF0B3
:101FF600E7EC18F01AC07DF01BC07EF01CC07FF025
:102006001DC080F07DC001F07EC002F07FC003F0ED
:1020160080C004F067EC1CF002BE1DEF10F0025009
:1020260007E10A0E015CD8B01BEF10F01DEF10F0AF
:102036002DEF10F07DC001F07EC002F07FC003F0EE
:1020460080C004F067EC1CF001C06BF002C06CF0BD
:1020560032EF10F0000E00016C6F090E6B6F00017D
:102066006851D8A439EF10F03BEF10F063EF10F091
:1020760061BF42EF10F040EF10F063EF10F09A0EE0
:102086008225D96E010E8321DA6E2E0EDF6E824B0B
:10209600832B7107D8A07207010E686F63EF10F0EB
:1020A6009A0E8225D96E010E8321DA6E300EDF6E0E
:1020B600824B832B7107D8A072076407D8A06507E7
:1020C60064516511D8A46AEF10F06CEF10F053EF6D
:1020D60010F09A0E8225D96E010E8321DA6E6B51AD
:1020E600300FDF6E824B832B7107D8A0720779C041
:1020F6002AF07AC02BF07BC02CF07CC02DF07DC07E
:1021060005F07EC006F07FC007F080C008F088C0EA
:1021160001F089C002F08AC003F08BC004F09AEC8B
:1021260013F001C02EF002C02FF003C030F004C03F
:1021360031F0A3EC22F02AC079F02BC07AF02CC043
:102146007BF02DC07CF088C001F089C002F08AC007
:1021560003F08BC004F0000E056E000E066E200E16
:10216600076E410E086EADEC15F001C088F002C096
:1021760089F003C08AF004C08BF000016007D8A084
:102186006107774B782B6D51775D7851800A386EF1
:102196006E51800A3858D8B0D3EF10F0D5EF10F052
:1021A600E3EF10F083BFE1EF10F0835109E14B0E2E
:1021B600825DD8A0E1EF10F0E3EF10F0E1EF0FF051
:1021C600000E786F4F0E776F9A0E7725D96E010E37
:1021D6007821DA6EDF6A9A0E386E010E396E8251F8
:1021E600385E8351395A77513824016E7851392037
:1021F600026E9A0E036E010E046E82C005F083C055
:1022060006F057EC22F000018251775D826F835110
:102216007859836F8151D8A413EF11F016EF11F09E
:10222600010E17EF11F0000E776F786B8151D8B45D
:102236001FEF11F021EF11F02CEF11F08207D8A05B
:1022460083079A0E8225D96E010E8321DA6E81C02C
:10225600DFFF7751715F7851725B32C00FF09A0ED3
:102266008225106E010E8321116E71C012F072C0AC
:1022760013F0B8EC20F012001D50800B266E1D5096
:102286001D24286E1CAE4AEF11F04CEF11F04DEFF5
:1022960011F028802850D8B453EF11F055EF11F003
:1022A60069EF11F02828D8A45BEF11F05DEF11F06B
:1022B60065EF11F0000E1A6E000E1B6E000E1C6EFE
:1022C600000E1D6E1C8E1D6A71EF11F0000E1A6E47
:1022D600000E1B6E000E1C6E000E1D6E2150800B34
:1022E600276E26502718D8B47BEF11F07DEF11F03A
:1022F6007EEF11F0268C21502124276E20AE86EF2A
:1023060011F088EF11F089EF11F027802750D8B42B
:102316008FEF11F091EF11F0A5EF11F02728D8A457
:1023260097EF11F099EF11F0A1EF11F0000E1E6E6C
:10233600000E1F6E000E206E000E216E208E216A8A
:10234600ADEF11F0000E1E6E000E1F6E000E206E19
:10235600000E216E2850275CD8B0B4EF11F0B6EF0E
:1023660011F0DDEF11F026ACBBEF11F0BDEF11F06F
:10237600BFEF11F0800E261A28C029F027C028F0DA
:1023860029C027F01AC029F01EC01AF029C01EF075
:102396001BC029F01FC01BF029C01FF01CC029F06C
:1023A60020C01CF029C020F01DC029F021C01DF05E
:1023B60029C021F0296A285027C022F0236A225E0C
:1023C600000E235A23BEF1EF11F0235009E11A0E35
:1023D600225CD8A0F1EF11F0F3EF11F02AEF12F022
:1023E6001A501B101C101D10D8A4FCEF11F0FFEFA3
:1023F60011F0010E00EF12F0000E296E000E1A6E9B
:10240600000E1B6E000E1C6E000E1D6E27C028F0FF
:1024160033EF12F029A012EF12F014EF12F01AEFB8
:1024260012F0D89029300109296E1CEF12F0D890CD
:1024360029321AA021EF12F023EF12F024EF12F046
:10244600298E1D341D321C321B321A32282A27507F
:10245600285CD8A031EF12F033EF12F00DEF12F036
:1024660026BC38EF12F03AEF12F07AEF12F028504D
:10247600D8A440EF12F042EF12F04CEF12F0000E2B
:102486001A6E000E1B6E000E1C6E000E1D6E99EF6E
:1024960013F01E501A261F501B2220501C222150BA
:1024A6001D221DA059EF12F05BEF12F007EF13F09B
:1024B60029A060EF12F062EF12F068EF12F0D890E8
:1024C60029300109296E6AEF12F0D89029321AA034
:1024D6006FEF12F071EF12F072EF12F0298E1D34C9
:1024E6001D321C321B321A32282A07EF13F01E50F7
:1024F6001A5C1F501B5820501C581D50800A226E13
:102506002150800A2258D8B08BEF12F08DEF12F0CE
:10251600B8EF12F01A501E5C226E1B501F58236E25
:102526001C502058246E1D502158256EFF0E222463
:102536001A6EFF0E23201B6EFF0E24201C6EFF0E4C
:1025460025201D6E800E261A296C2950D8A4AEEFC0
:1025560012F0B0EF12F0C0EF12F0010E1A26000EC4
:102566001B221C221D22C0EF12F01E501A5E1F50A5
:102576001B5A20501C5A21501D5A1A501B101C1051
:102586001D10D8A4C9EF12F0CBEF12F000EF13F034
:102596002950D8A4D1EF12F0D3EF12F000EF13F0C8
:1025A600000E1A6E000E1B6E000E1C6E000E1D6EC7
:1025B60099EF13F0D8901A361B361C361D3629AE05
:1025C600E7EF12F0E9EF12F0EAEF12F01A8029A015
:1025D600EFEF12F0F1EF12F0F5EF12F0D880293696
:1025E600F7EF12F0D89029362850D8B4FDEF12F044
:1025F600FFEF12F000EF13F028061CAE05EF13F004
:1026060007EF13F0DDEF12F0276A29AE0DEF13F096
:102616000FEF13F027EF13F029C022F07F0E2216DA
:10262600D8B418EF13F01AEF13F01EEF13F0010EE3
:10263600276E27EF13F01AA023EF13F025EF13F000
:1026460027EF13F01AEF13F02750D8B42DEF13F03D
:102656002FEF13F05AEF13F0010E1A26000E1B226D
:102666001C221D221DA03AEF13F03CEF13F05AEF87
:1026760013F01AC022F01BC023F01CC024F01DC0AA
:1026860025F02534253224322332223222C01AF094
:1026960023C01BF024C01CF025C01DF02828D8B488
:1026A60057EF13F059EF13F05AEF13F0282A2828A2
:1026B600D8B460EF13F062EF13F06AEF13F028500E
:1026C600D8A468EF13F06AEF13F07BEF13F0000E57
:1026D6001A6E000E1B6E000E1C6E000E1D6E28502C
:1026E600D8A478EF13F07AEF13F07BEF13F0266A95
:1026F60028A080EF13F082EF13F085EF13F01C8E05
:1027060086EF13F01C9ED89028301D6E26AE8EEFF5
:1027160013F090EF13F091EF13F01D8E1AC01AF01C
:102726001BC01BF01CC01CF01DC01DF01200045085
:10273600800B0D6E04500424136E03AEA5EF13F048
:10274600A7EF13F0A8EF13F013801350D8B4AEEF31
:1027560013F0B0EF13F0C3EF13F01328D8A4B6EFBD
:1027660013F0B8EF13F0C0EF13F0000E016E000E79
:10277600026E000E036E000E046E038ECBEF13F096
:10278600000E016E000E026E000E036E000E046E49
:102796000850800B0D1A08500824126E07AED6EFAB
:1027A60013F0D8EF13F0D9EF13F012801250D8B40B
:1027B600DFEF13F0E1EF13F0F4EF13F01228D8A4D3
:1027C600E7EF13F0E9EF13F0F1EF13F0000E056EEB
:1027D600000E066E000E076E000E086E078EFCEFEA
:1027E60013F0000E056E000E066E000E076E000E4C
:1027F600086E1250D8B402EF14F004EF14F00CEF88
:1028060014F01350D8A40AEF14F00CEF14F016EFDE
:1028160014F0000E016E000E026E000E036E000E26
:10282600046EACEF15F007500102F3CF18F0F4CFA9
:1028360019F018500E6E0F6A106A116A1950146E4C
:10284600156A166A176A06500202F3CF18F0F4CF1B
:1028560019F018500E26000E0F22102211221950C0
:102866001426000E15221622172205500302F3CF56
:1028760018F0F4CF19F018500E26000E0F22102271
:10288600112219501426000E15221622172210C0E6
:1028960011F00FC010F00EC00FF00E6A05500202C4
:1028A600F3CF18F0F4CF19F018500E2619500F2256
:1028B600000E1022000E112206500102F3CF18F06E
:1028C600F4CF19F018500E2619500F22000E1022C0
:1028D600000E112210C011F00FC010F00EC00FF044
:1028E6000E6A05500102F3CF18F0F4CF19F0185014
:1028F6000E2619500F22000E1022000E112207502C
:102906000202F3CF18F0F4CF19F01850142619501C
:102916001522000E1622000E172206500302F3CFD0
:1029260018F0F4CF19F01850142619501522000E7D
:102936001622000E172207500302F3CF18F0F4CF29
:1029460019F01850096E19500A6E0B6A0C6A0BC002
:102956000CF00AC00BF009C00AF0096A09501426E7
:102966000A5015220B5016220C5017220EC009F0E1
:102976000FC00AF010C00BF011C00CF0190EC9EF11
:1029860014F0D8900C320B320A320932E82EC4EF1A
:1029960014F0095014260A5015220B5016220C501A
:1029A600172210C011F00FC010F00EC00FF00E6A03
:1029B600125013C009F00A6A0926000E0A22820E76
:1029C6000924186EFF0E0A20196EFFEF14F0D89036
:1029D600143615361636173611AEF4EF14F0F6EF38
:1029E60014F0F7EF14F01480D8900E360F36103628
:1029F60011361806D8A0190616AE04EF15F006EF24
:102A060015F0EAEF14F0126A11AE0CEF15F00EEFA6
:102A160015F032EF15F0FF0E0E14096EFF0E0F14AF
:102A26000A6EFF0E10140B6E7F0E11140C6E0950F9
:102A36000A100B100C10D8B423EF15F025EF15F083
:102A460029EF15F0010E126E32EF15F014A02EEFDD
:102A560015F030EF15F032EF15F025EF15F01250A6
:102A6600D8B438EF15F03AEF15F05EEF15F0010E19
:102A76001426000E15221622172217A045EF15F070
:102A860047EF15F05EEF15F014C009F015C00AF017
:102A960016C00BF017C00CF00C340C320B320A3295
:102AA600093209C014F00AC015F00BC016F00CC0AC
:102AB60017F0184A192A19BE69EF15F0195008E1DE
:102AC6001828D8A069EF15F06BEF15F075EF15F023
:102AD600000E146E000E156E800E166E7F0E176EAB
:102AE600A2EF15F019BE82EF15F0195006E1180491
:102AF600D8B080EF15F082EF15F08DEF15F0000ECF
:102B0600146E000E156E000E166E000E176E0D6A10
:102B1600A2EF15F018C013F0FF0E1416FF0E1516CF
:102B26007F0E1616000E171613A09CEF15F09EEFDB
:102B360015F09FEF15F0168ED8901330176E0D50C6
:102B4600171214C001F015C002F016C003F017C02A
:102B560004F012000450800B116E04500424186E09
:102B660003AEB8EF15F0BAEF15F0BBEF15F018800D
:102B76001850D8B4C1EF15F0C3EF15F0D7EF15F024
:102B86001828D8A4C9EF15F0CBEF15F0D3EF15F040
:102B9600000E016E000E026E000E036E000E046E35
:102BA600038E046ADFEF15F0000E016E000E026E52
:102BB600000E036E000E046E0850800B111A0850AA
:102BC6000824196E07AEEAEF15F0ECEF15F0EDEFFD
:102BD60015F019801950D8B4F3EF15F0F5EF15F08C
:102BE60009EF16F01928D8A4FBEF15F0FDEF15F044
:102BF60005EF16F0000E056E000E066E000E076E4F
:102C0600000E086E078E086A11EF16F0000E056EAC
:102C1600000E066E000E076E000E086E05500610BA
:102C260007100810D8A41AEF16F01CEF16F034EFB0
:102C360016F0000E016E000E026E000E036E000E00
:102C4600046E800E03127F0E04121150041201C08E
:102C560001F002C002F003C003F004C004F074EFF8
:102C660017F01850D8A43AEF16F03CEF16F046EFDE
:102C760016F0000E016E000E026E000E036E000EC0
:102C8600046E74EF17F0195018C009F00A6A095E4D
:102C9600000E0A5A7F0E0924126E000E0A20136EC9
:102CA60001C00DF002C00EF003C00FF004C010F01A
:102CB600000E016E000E026E000E036E000E046E14
:102CC600000E146E000E156E000E166E000E176EB8
:102CD600196AA6EF16F01950D8B474EF16F076EF0D
:102CE60016F08DEF16F0D8900D360E360F361036DC
:102CF600D890013602360336043617AE85EF16F045
:102D060087EF16F088EF16F00180D8901436153646
:102D16001636173605500D5C06500E5807500F58DC
:102D260008501058D8A09AEF16F09CEF16F0A5EFB1
:102D360016F0178C05500D5E06500E5A07500F5AA6
:102D46000850105A192A190E1964ACEF16F0AEEF96
:102D560016F06EEF16F00D500E100F101010D8B4BE
:102D6600B7EF16F0B9EF16F0D1EF16F01480D1EFE9
:102D760016F0D890013602360336043617AEC6EF83
:102D860016F0C8EF16F0C9EF16F00180D890143689
:102D96001536163617361206D8A0130603AED6EF2A
:102DA60016F0D8EF16F0BCEF16F0196A17AEDEEF84
:102DB60016F0E0EF16F004EF17F0FF0E1414096E8C
:102DC600FF0E15140A6EFF0E16140B6E7F0E1714E7
:102DD6000C6E09500A100B100C10D8B4F5EF16F053
:102DE600F7EF16F0FBEF16F0010E196E04EF17F071
:102DF60001A000EF17F002EF17F004EF17F0F7EF5E
:102E060016F01950D8B40AEF17F00CEF17F030EFA0
:102E160017F0010E0126000E02220322042204A04E
:102E260017EF17F019EF17F030EF17F001C009F0A0
:102E360002C00AF003C00BF004C00CF00C340C32D4
:102E46000B320A32093209C001F00AC002F00BC087
:102E560003F00CC004F0124A132A13BE3BEF17F01E
:102E6600135008E11228D8A03BEF17F03DEF17F0FA
:102E760048EF17F0000E136E1268000E016E000E7A
:102E8600026E000E036E000E046E13BE55EF17F0B1
:102E9600135006E11204D8B053EF17F055EF17F0B0
:102EA60062EF17F0000E136E000E126E000E016E2A
:102EB600000E026E000E036E000E046E116A12C042
:102EC60018F018A069EF17F06BEF17F06EEF17F018
:102ED600038E6FEF17F0039ED8901830046E28EF1C
:102EE60016F01200AEC001F0AFC002F03F0E036E46
:102EF600000E056E060E046E55EC1EF00150021013
:102F0600D8B488EF17F08AEF17F09FEF17F0AEC02E
:102F160001F0AFC002F0380E036E000E056E060E0D
:102F2600046E55EC1EF001500210D8A49DEF17F068
:102F36009FEF17F0E6EF18F0000E016E010E026E1D
:102F4600AEC003F0AFC004F0000E066E630E056E51
:102F56000DEC20F00101636B000E976F000E966F6B
:102F660021EE64F0130EDE6AE806FDE221EE78F04B
:102F7600130EDE6AE806FDE24E0E946F450E956F5F
:102F8600000E0B6E010E0C6E520E0D6EEBEC1DF06C
:102F96000BC098F10CC099F18CEF18F0964B972B5B
:102FA600AEC001F0AFC002F03F0E036E000E056E1C
:102FB600060E046E55EC1EF001500210D8A4E6EF82
:102FC60017F0E8EF17F03BEF18F0030E0101961922
:102FD6009711D8A4F1EF17F0F3EF17F0FFEF17F002
:102FE600640E016E010E026E98C103F099C104F0E1
:102FF6002DEC22F080EF18F0040E96199711D8A444
:1030060007EF18F009EF18F011EF18F098C1D9FF83
:1030160099C1DAFFDF50946F80EF18F0050E96190C
:103026009711D8A419EF18F01BEF18F027EF18F036
:10303600780E016E010E026E98C103F099C104F07C
:103046002DEC22F080EF18F0060E96199711D8A4F1
:103056002FEF18F031EF18F039EF18F098C1D9FFBB
:1030660099C1DAFFDF50956F80EF18F080EF18F006
:10307600020E010196199711D8A444EF18F046EFF5
:1030860018F052EF18F0640E016E010E026E98C130
:1030960003F099C104F02DEC22F080EF18F0030E36
:1030A60096199711D8A45AEF18F05CEF18F05EEF56
:1030B60018F009EF18F0040E96199711D8A466EFC8
:1030C60018F068EF18F074EF18F0780E016E010E24
:1030D600026E98C103F099C104F02DEC22F080EF46
:1030E60018F0050E96199711D8A47CEF18F07EEF0C
:1030F60018F039EF18F031EF18F0000E0B6E000ED5
:103106000C6E520E0D6EEBEC1DF00BC098F10CC060
:1031160099F1010198519911D8A494EF18F096EFFE
:1031260018F0D1EF17F0640E016E010E026E5BEC23
:1031360023F001500210D8B4A3EF18F0A5EF18F051
:10314600E6EF18F0780E016E010E026E5BEC23F0CE
:1031560001500210D8B4B2EF18F0B4EF18F0E6EF51
:1031660018F0640E3F6E010E406E94C141F0B1EC52
:103176001BF03FC08CF140C08DF141C08EF142C0C2
:103186008FF1780E3F6E010E406E95C141F0B1ECA5
:103196001BF03FC090F140C091F141C092F142C096
:1031A60093F18CC195F08DC196F08EC197F08FC1C9
:1031B60098F090C199F091C19AF092C19BF093C199
:1031C6009CF083EC20F01200D8C02AF0D9C02BF076
:1031D600DAC02CF0DBC02DF01AC02AF01BC02BF091
:1031E6001CC02CF01DC02DF0810E1E6EFF0E1F6E32
:1031F6002AC020F02BC021F02CC022F02DC023F0D5
:10320600180E0BEF19F0D8902332223221322032D9
:10321600E82E06EF19F020501E24286E000E1F20FF
:10322600296E29BE20EF19F0295009E1170E285CF6
:10323600D8A020EF19F022EF19F02CEF19F01AC0E0
:103246001AF01BC01BF01CC01CF01DC01DF0EFEFD8
:1032560019F029BE31EF19F033EF19F0A3EF19F089
:1032660028C01EF0FF0E1F6EFF0E206E7F0E216E11
:10327600000E226E1E6642EF19F04AEF19F0223454
:103286002232213220321F321E2E3DEF19F01FC08E
:1032960024F020C025F021C026F022C027F02450BB
:1032A6002A141E6E25502B141F6E26502C14206EC9
:1032B60027502D14216E1E501F1020102110D8A447
:1032C60067EF19F069EF19F06BEF19F022EF19F0BB
:1032D6002AC01EF02BC01FF02CC020F02DC021F0FC
:1032E600200E7BEF19F0D890213220321F321E3289
:1032F600E82E76EF19F01E501F1020102110D8B4BA
:1033060087EF19F089EF19F091EF19F024502A266A
:1033160025502B2226502C2227502D22241C1E6E8F
:10332600251C1F6E261C206E271C216E1E502A1679
:103336001F502B1620502C1621502D16E7EF19F092
:103346002AC01EF02BC01FF02CC020F02DC021F08B
:10335600200EB3EF19F0D890213220321F321E32E0
:10336600E82EAEEF19F01E501F1020102110D8A421
:10337600BFEF19F0C1EF19F0CBEF19F0000E2A6E6E
:10338600000E2B6E000E2C6E000E2D6EE7EF19F060
:10339600D8902A341E6E2B341F6E2C34206E2D349A
:1033A600216E1E501F1020102110D8B4DDEF19F029
:1033B600DFEF19F0E7EF19F0000E2A6E000E2B6E04
:1033C600800E2C6EBF0E2D6E2AC01AF02BC01BF07D
:1033D6002CC01CF02DC01DF012003B50D96EDA6ACD
:1033E600DFCFF6FF080EF76E0800F550250AD8A4C1
:1033F600FFEF19F001EF1AF0C5EF1AF03B50D96E46
:10340600DA6ADF2A000E0001E56F000EE46FE4C001
:103416005CF0E669E7693B50D96EDA6ADFCFF6FF02
:10342600080EF76E0800F5502E0AD8A41DEF1AF004
:103436001FEF1AF02DEF1AF03B50D96EDA6ADF2A29
:103446003BC001F03CC002F0BBEC1FF001C0E6F04F
:1034560002C0E7F03B50D96EDA6ADF50436E43C0D4
:10346600F6FF080EF76E0800F5CF42F045EF1AF0AA
:10347600432A54EF1AF06C0E426E54EF1AF0426A69
:1034860054EF1AF042504C0AD8B43BEF1AF02A0A0D
:10349600D8B43EEF1AF00A0AD8B43BEF1AF042EF5E
:1034A6001AF043C0F6FF080EF76E0800F550660ADC
:1034B600D8A460EF1AF062EF1AF0BFEF1AF08CEFA3
:1034C6001AF03C50D96EDA6ADFCF3DF0040EDF26E3
:1034D6003D50D96EDA6ADECF3EF0DECF3FF0DECF6A
:1034E60040F0DECF41F097EF1AF03C50D96EDA6A21
:1034F600DFCF3DF0040EDF263D50D96EDA6ADECF0F
:103506003EF0DECF3FF0DECF40F0DECF41F097EF6A
:103516001AF042504C0AD8B478EF1AF0200AD8B400
:1035260064EF1AF097EF1AF03B50D96EDA6A432827
:10353600DF6EB3EF1AF03AC032F03EC033F03FC050
:1035460034F040C035F041C036F043C0F6FF080EF7
:10355600F76E0800F5CF37F045EC0CF0D6EF1AF011
:1035660043C0F6FF080EF76E0800F550660AD8B499
:103576009EEF1AF0BFEF1AF03B50D96EDA6ADF2AD7
:10358600D6EF1AF03B50D96EDA6ADFCFF6FF080E97
:10359600F76E0800F550016E026A3AC003F011ECAE
:1035A6001FF0BFEF1AF01200096E0950D8B4DEEF13
:1035B6001AF0E0EF1AF002EF1BF004BEE7EF1AF084
:1035C600E5EF1AF002EF1BF001C005F002C006F0AD
:1035D60003C007F004C008F0051E061E071E081EDD
:1035E600052A000E06220722082205C00BF006C097
:1035F6000CF007C00DF008C00EF00AEF1BF001C07A
:103606000BF002C00CF003C00DF004C00EF0015028
:10361600021003100410D8A413EF1BF015EF1BF0D3
:103626001FEF1BF0000E016E000E026E000E036E01
:10363600000E046EB0EF1BF0960E0A6E29EF1BF01B
:103646000A2AD8900E320D320C320B32000E0B14B1
:10365600056E000E0C14066E000E0D14076EFE0E9F
:103666000E14086E0550061007100810D8A43EEF79
:103676001BF040EF1BF023EF1BF04EEF1BF00A2A66
:10368600010E0B26000E0C220D220E22D8900E32B1
:103696000D320C320B32000E0B14056E000E0C149C
:1036A600066E000E0D14076EFF0E0E14086E055002
:1036B600061007100810D8A463EF1BF065EF1BF087
:1036C60042EF1BF06DEF1BF00A06D8900B360C3656
:1036D6000D360E360DBE72EF1BF074EF1BF07CEF4D
:1036E6001BF0020E0A607AEF1BF07CEF1BF067EF0F
:1036F6001BF00AB081EF1BF083EF1BF084EF1BF089
:103706000D9ED8900A320AC005F0066A076A086A52
:1037160005C008F0076A066A056A05500B120650CE
:103726000C1207500D1208500E120950D8B49EEF15
:103736001BF0A0EF1BF0A8EF1BF004BEA7EF1BF0D9
:10374600A5EF1BF0A8EF1BF00E8E0BC001F00CC00E
:1037560002F00DC003F00EC004F012003FC001F0ED
:1037660040C002F05BEC23F0025007E1060E015C5C
:10377600D8B0C0EF1BF0C2EF1BF0C8EF1BF0000E75
:10378600506E030E4F6ECCEF1BF0000E506E020E05
:103796004F6E000E516E000E526E000E536E000EEE
:1037A600546E510E016E026A3FC003F040C004F031
:1037B6004FC005F050C006F00DEC20F0510E266EFD
:1037C600276A000E286E000E296E2BEC04F026C028
:1037D60043F027C044F028C045F029C046F04F50BA
:1037E6003F24266E50504020276E000E286E000E95
:1037F600296E2BEC04F026C047F027C048F028C0FD
:1038060049F029C04AF0000E056E000E066E700ED5
:10381600076E420E086E47C001F048C002F049C06C
:1038260003F04AC004F0ADEC15F001C01AF002C076
:103836001BF003C01CF004C01DF043C01EF044C0C2
:103846001FF045C020F046C021F03FEC11F01AC031
:103856004BF01BC04CF01CC04DF01DC04EF0530E7B
:103866004118D8B439EF1CF03BEF1CF044EF1CF0C4
:10387600570E4118D8A442EF1CF044EF1CF05EEF3F
:103886001CF04BC001F04CC002F04DC003F04EC01E
:1038960004F0000E056E000E066E800E076EBF0E5B
:1038A600086E9AEC13F001C04BF002C04CF003C056
:1038B6004DF004C04EF04BC03FF04CC040F04DC040
:1038C60041F04EC042F01200033404340A6E0A502E
:1038D600D8A470EF1CF072EF1CF07CEF1CF0000E09
:1038E600016E000E026E000E036E000E046EE9EF0E
:1038F6001CF001C005F002C006F003C007F004C0CA
:1039060008F0200E8CEF1CF0D890083207320632F1
:103916000532E82E87EF1CF00550096E038EFF0E68
:103926000116FF0E0216FF0E0316000E0416960E63
:103936000A5E0ABEA3EF1CF0A1EF1CF0B9EF1CF063
:103946000A50800A970FD8B0ABEF1CF0ADEF1CF011
:10395600AFEF1CF072EF1CF0D89004320332023243
:1039660001320A3EAFEF1CF0D1EF1CF01F0E0A64C5
:10397600BFEF1CF0C1EF1CF0C9EF1CF072EF1CF09A
:10398600D89001360236033604360A060A50D8A401
:10399600CFEF1CF0D1EF1CF0C3EF1CF00950D8B4E8
:1039A600D7EF1CF0D9EF1CF0E1EF1CF0041E031E4C
:1039B600021E016C000E02220322042201C001F045
:1039C60002C002F003C003F004C004F01200000EAF
:1039D6001A14226E000E1B14236E800E1C14246E05
:1039E6007F0E1D14256E2250231024102510D8A4F6
:1039F600FFEF1CF001EF1DF009EF1DF0000E1A6E2F
:103A0600000E1B6E000E1C6E000E1D6E000E1E14A8
:103A1600226E000E1F14236E800E2014246E7F0E5D
:103A26002114256E2250231024102510D8A41EEF31
:103A36001DF020EF1DF028EF1DF0000E1E6E000E8B
:103A46001F6E000E206E000E216E1DAE2DEF1DF0B6
:103A56002FEF1DF038EF1DF01A6C1B1ED8B01B2A75
:103A66001C1ED8B01C2A800E1D5621AE3DEF1DF03F
:103A76003FEF1DF048EF1DF01E6C1F1ED8B01F2A29
:103A8600201ED8B0202A800E2156000E1A1A000ECB
:103A96001B1A000E1C1A800E1D1A000E1E1A000E8E
:103AA6001F1A000E201A800E211A1E501A5C1F5073
:103AB6001B5820501C5821501D58D8B065EF1DF0DA
:103AC60067EF1DF06AEF1DF0D8906BEF1DF0D88000
:103AD6001200DCC00BF0DDC00CF0DEC00DF0DFC064
:103AE6000EF001C00BF002C00CF003C00DF004C0D4
:103AF6000EF00BC005F00CC006F00DC007F00EC0AE
:103B060008F0180E8CEF1DF0D890083207320632F6
:103B16000532E82E87EF1DF00550096E0A6A095036
:103B26000A10D8A499EF1DF09BEF1DF0BBEF1DF016
:103B3600D8900B34056E0C34066E0D34076E0E34B9
:103B4600086E0550061007100810D8A4ADEF1DF03A
:103B5600AFEF1DF0B5EF1DF0000E026E020E016E06
:103B6600EAEF1DF0000E026E030E016EEAEF1DF085
:103B760009280A10D8A4C2EF1DF0C4EF1DF0E6EF25
:103B86001DF00BC005F00CC006F00DC007F00EC00E
:103B960008F0090ED8900536063607360836E82EA0
:103BA600CDEF1DF00550061007100810D8B4DEEF53
:103BB6001DF0E1EF1DF0010EE2EF1DF0000E016EAB
:103BC600026AEAEF1DF0000E026E040E016E12008C
:103BD6000B500C10D8A4F2EF1DF0F4EF1DF007EF18
:103BE6001EF056C00BF057C00CF00B500C10D8A4AA
:103BF600FFEF1DF001EF1EF007EF1EF0000E0B6E3B
:103C0600000E0C6E54EF1EF00BC005F00CC006F053
:103C16000DC007F0EBEC20F005500B2606500C22E9
:103C26000BC0D9FF0CC0DAFFDF50D8A41DEF1EF081
:103C36001FEF1EF029EF1EF0000E566E000E576E97
:103C460056C00BF057C00CF054EF1EF00BC005F039
:103C56000CC006F00DC007F01BEC21F005500B243C
:103C6600566E06500C20576E56C0D9FF57C0DAFF65
:103C7600DF50D8B441EF1EF043EF1EF04CEF1EF0BC
:103C860056C0D9FF57C0DAFFDF6A564A572A50EFA7
:103C96001EF0000E566E000E576E0BC00BF00CC0D9
:103CA6000CF012000406D8A00506042806E1052833
:103CB600D8A460EF1EF062EF1EF06EEF1EF0000E4D
:103CC600026E000E016EB6EF1EF0014A022A032AAA
:103CD6000406D8A0050601C0D9FF02C0DAFFDF50EE
:103CE600D8B478EF1EF07AEF1EF0A5EF1EF003C0F1
:103CF600F6FF080EF76E0800F5500009D8B486EFF7
:103D06001EF088EF1EF0A5EF1EF004500510D8B483
:103D16008FEF1EF091EF1EF0A5EF1EF001C0D9FF48
:103D260002C0DAFFDF50066E03C0F6FF080EF76E1C
:103D36000800F5500618D8B4A3EF1EF0A5EF1EF044
:103D460068EF1EF001C0D9FF02C0DAFFDF50066E31
:103D560003C0F6FF080EF76E0800F550065C016E0C
:103D6600026AD8A002061200720ED36E936A8A6A9D
:103D76008DEC23F012EC24F0F3EC23F0010E036E2D
:103D86000350D8A4080E046E4BEC21F0FFEC23F090
:103D96000009D8B4D1EF1EF0D3EF1EF0C9EF1EF024
:103DA60009EC24F0556E0A0E5518D8A4DDEF1EF066
:103DB600DFEF1EF0F3EF1EF0000E5A24D96E020E4E
:103DC6005B20DA6EDF6A000E0001AE6F020EAF6F87
:103DD60075EC17F0000E5B6E000E5A6EC9EF1EF002
:103DE6005BBE01EF1FF05B5007E1630E5A5CD8B073
:103DF600FFEF1EF001EF1FF00DEF1FF0000E5A242B
:103E0600D96E020E5B20DA6E55C0DFFF5A4A5B2A76
:103E1600C9EF1EF0C9EF1EF0FEEF3FF00350D8B415
:103E260017EF1FF019EF1FF021EF1FF00350D8A472
:103E36001FEF1FF021EF1FF026EF1FF001501BECC4
:103E460024F065EF1FF00350D96EDA6A090ED92601
:103E5600DE50DE10D8B432EF1FF034EF1FF04DEF16
:103E66001FF00350D96EDA6A090ED9260350E16EA7
:103E7600E26A020EE126DE50E65CE650800A086E33
:103E8600DE50800A0858D8B04BEF1FF04DEF1FF0F8
:103E960065EF1FF00350D96EDA6A020ED926DF509D
:103EA600046E0350D96EDA6ADF500424D96EDA6ADA
:103EB60001C0DFFF0350D96EDA6A020ED926DE2A68
:103EC600000EDD221200000E0114096E000E02140F
:103ED6000A6E800E03140B6E7F0E04140C6E0950CE
:103EE6000A100B100C10D8A47BEF1FF07DEF1FF00B
:103EF60085EF1FF0000E016E000E026E000E036EBF
:103F0600000E046E000E0514096E000E06140A6EED
:103F1600800E07140B6E7F0E08140C6E09500A10E3
:103F26000B100C10D8A49AEF1FF09CEF1FF0A4EF13
:103F36001FF0000E056E000E066E000E076E000ED8
:103F4600086E055001180FE1065002180CE10750E3
:103F5600031809E108500418D8B4B4EF1FF0B6EFFF
:103F66001FF0B9EF1FF0D890BAEF1FF0D8801200FB
:103F7600000E076E000E066E0150D96EDA6ADFCFAC
:103F8600F6FF080EF76E0800F5502A0AD8A4CEEF01
:103F96001FF0D0EF1FF0F5EF1FF00150D96EDA6A6F
:103FA600DF2A0250D96EDA6A020EDF26DF5CD96E8E
:103FB600DA6ADECF06F0DECF07F008EF20F00A0E51
:103FC6000602F3CF03F0F4CF04F00702F350042601
:103FD60005500324066E000E0420076E0150D96EAC
:103FE600DA6ADF2A0150D96EDA6ADFCFF6FF080EE9
:103FF600F76E0800F550D00F056E090E056406EF42
:1040060020F008EF20F0E2EF1FF006C001F007C035
:1040160002F0120001C007F002C008F02EEF20F0F7
:104026000506D8A0060603C0D9FF04C0DAFF034A76
:10403600042A07C0E1FF08C0E2FF074A082ADFCFCB
:10404600E7FFE750D8A42AEF20F02CEF20F02EEF60
:1040560020F040EF20F005500610D8A435EF20F0F0
:1040660037EF20F013EF20F040EF20F007C0D9FF24
:1040760008C0DAFFDF6A074A082A0506D8A006063E
:10408600052806E10628D8A44BEF20F04DEF20F0D6
:1040960039EF20F01200000E096E000E0A6E000EB7
:1040A6000B6E000E0C6E01A05BEF20F05DEF20F0B2
:1040B60065EF20F00550092606500A2207500B220C
:1040C60008500C22D8900536063607360836D890A2
:1040D600043203320232013201500210031004107E
:1040E600D8A478EF20F07AEF20F056EF20F009C040
:1040F60001F00AC002F00BC003F00CC004F012007D
:10410600F3EC23F0010E036E010EBAEC23F09D0EC4
:1041160000018F6F1C0E906F95C091F096C092F0C3
:1041260097C093F098C094F023EC23F09D0E036E95
:10413600046A4BEC21F0010E036E020EBAEC23F07A
:104146009D0E00018F6F120E906F99C091F09AC06C
:1041560092F09BC093F09CC094F023EC23F09D0E4C
:10416600036E046A4BEC21F0120013BEBFEF20F081
:10417600BDEF20F0C3EF20F0000E136E000E126E9E
:10418600000E166E000E156ED3EF20F0000E026EB6
:10419600200E016E0FC003F011EC1FF0154A162A0F
:1041A6001250155C1650800A146E1350800A14586B
:1041B600D8A0E0EF20F0E2EF20F0C9EF20F010C029
:1041C60009F011C00AF00FC00BF0E6EC22F0120065
:1041D600000E0A6E000E096EF5EF20F0054A062A5B
:1041E600094A0A2A05C0D9FF06C0DAFFDF50D8B44B
:1041F600FFEF20F001EF21F016EF21F007C001F0EC
:1042060005C0D9FF06C0DAFFDF50086E0850026EFF
:10421600036A7FEC22F00009D8A414EF21F016EF10
:1042260021F0F1EF20F009C005F00AC006F01200F7
:10423600000E0A6E000E096E25EF21F0054A062AC9
:10424600094A0A2A05C0D9FF06C0DAFFDF50D8B4EA
:104256002FEF21F031EF21F046EF21F007C001F0FA
:1042660005C0D9FF06C0DAFFDF50086E0850026E9F
:10427600036A7FEC22F00009D8B444EF21F046EF40
:1042860021F021EF21F009C005F00AC006F0120066
:1042960061EF21F003C0F6FF04C0F7FFF86A070ECE
:1042A600F76403D00800F55005D0F6CFE1FFF7CF4D
:1042B600E2FFE7507AEC21F0034A042A03C0F6FF36
:1042C60004C0F7FFF86A070EF76403D00800F5503C
:1042D60005D0F6CFE1FFF7CFE2FFE7500009D8A4FB
:1042E60077EF21F079EF21F04DEF21F01200026E09
:1042F6008A8002C001F0D8900132D89001323C0E7B
:1043060001168A50C30B01108A6E8A82060E016E50
:10431600300EE82EFED7012EFCD700D08A9202C0BE
:1043260001F0D8900136D89001363C0E01168A501D
:10433600C30B01108A6E8A82060E016E300EE82EBD
:10434600FED7012EFCD700D08A921200026E8A9008
:1043560002C001F0D8900132D89001323C0E01160D
:104366008A50C30B01108A6E8A82060E016E300EC9
:10437600E82EFED7012EFCD700D08A9202C001F0AB
:10438600D8900136D89001363C0E01168A50C30BE0
:1043960001108A6E8A82060E016E300EE82EFED756
:1043A600012EFCD700D08A92120004BEDDEF21F068
:1043B600DFEF21F0E9EF21F001C001F002C002F0C9
:1043C60003C003F004C004F002EF22F001C005F0C0
:1043D60002C006F003C007F004C008F0051E061E62
:1043E600071E081E052A000E06220722082205C0FF
:1043F60001F006C002F007C003F008C004F0120086
:10440600010E076E01C003F0D00E0326090E0364E9
:104416000FEF22F011EF22F029EF22F0200E01100B
:10442600036E000E0210046E9F0E0324056EFF0E2F
:104436000420066E065009E1060E055CD8A026EF9C
:1044460022F028EF22F029EF22F0076A07C001F0D8
:10445600026A120001C007F002C008F00350056EA0
:104466000450066E034A042A05C0F6FF06C0F7FF8D
:10447600F86A07C0D9FF08C0DAFF074A082A070EFC
:10448600F76403D00800F55005D0F6CFE1FFF7CF6B
:10449600E2FFE750DF6EDF50D8A454EF22F056EF6C
:1044A60022F031EF22F0120003C009F004C00AF036
:1044B60001C007F002C008F071EF22F009C0D9FF71
:1044C6000AC0DAFFDF500B6E094A0A2A07C0D9FF75
:1044D60008C0DAFF0BC0DFFF074A082A0506D8A086
:1044E6000606052806E10628D8A47CEF22F07EEF12
:1044F60022F061EF22F0120001C0F6FF080EF76EFF
:104506000800F5500218D8A48BEF22F08DEF22F0A8
:1045160090EF22F00150A2EF22F0012A0104046E6E
:1045260004C0F6FF080EF76E0800F5500009D8A47F
:104536009FEF22F0A1EF22F07FEF22F0000E120093
:10454600000E2E1A000E2F1A000E301A800E311A87
:104556002AC01AF02BC01BF02CC01CF02DC01DF079
:104566002EC01EF02FC01FF030C020F031C021F049
:104576003FEC11F01AC02AF01BC02BF01CC02CF027
:104586001DC02DF012008DC044F0D2EF22F08CC079
:104596003AF0440E3B6E8EC03CF0F0EC19F044C08D
:1045A600F6FF080EF76E0800F5500009D8A4DEEFF6
:1045B60022F0E0EF22F0CAEF22F0000E00018D6F2C
:1045C600000E8C6F1200000E0E6E000E0D6EF5EFD3
:1045D60022F00CC001F0026A0BC003F011EC1FF0D0
:1045E6000D4A0E2A0D500924D96E0E500A20DA6E95
:1045F600DF500C6E0C50D8A403EF23F005EF23F028
:10460600ECEF22F0120002EE00F0640EEE6AE8060D
:10461600FDE101EE9AF0500EEE6AE806FDE100EECD
:10462600B0F0380EEE6AE806FDE100EE56F0070E31
:10463600EE6AE806FDE1000EF86E0001B7EF1EF027
:10464600910E456E8FC046F0000E496E000E486E04
:10465600000E506E000E4F6E460E00018C6F90C01D
:104666008DF0450E8E6FC6EC22F000018F51482466
:10467600D96EDA6ADF6A12000150021003100410C4
:10468600D8B448EF23F04AEF23F052EF23F0000EA0
:10469600011A000E021A000E031A800E041A01C037
:1046A60001F002C002F003C003F004C004F01200DF
:1046B60001C003F002C004F063EF23F0014A022AAE
:1046C60001C0D9FF02C0DAFFDF50D8A46DEF23F096
:1046D6006FEF23F061EF23F00350015C016E04508D
:1046E6000258026E120001C003F09F0E03261A0E36
:1046F600036080EF23F082EF23F088EF23F05F0E54
:104706000114016E026A8CEF23F001C001F002C0B1
:1047160002F01200340E036EF20EE82EFED7032EC0
:10472600FCD7020EA9EC21F0280EA9EC21F00C0E04
:10473600A9EC21F0060EA9EC21F0010EA9EC21F05E
:104746001200D00E0124036EFF0E0220046E0450E8
:104756000AE10A0E035CD8A0B3EF23F0B6EF23F00C
:10476600010EB7EF23F0000E016E026A1200046E0E
:104776000404D8A4C1EF23F0C3EF23F0C8EF23F05D
:1047860003507F0F056ECBEF23F00350BF0F056E6E
:104796000550A9EC21F0120001500302F3CF05F0F9
:1047A600F4CF06F001500402F3500626025003022D
:1047B600F350062605C001F006C002F01200FF0EF7
:1047C600056EFF0E066EFF0E076E7F0E086E05C0A5
:1047D60001F006C002F007C003F008C004F01200A2
:1047E600010EA9EC21F0060E036E300EE82EFED760
:1047F600032EFCD700D012009EBA04EF24F007EF78
:1048060024F0010E08EF24F0000E12009EAA0EEF0F
:1048160024F010EF24F009EF24F0AE501200949C1F
:10482600948E330EAF6EAC84AB8EAC8AAB8812001E
:0248360012006E
:047FFC0006EF23F079
:020000040030CA
:0800000000081F1EFF8181FFB3
:00000001FF
