:04000000FEEF3FF0E0
:100800000048656C6C6F20576F726C640000026E5C
:1008100002C001F0010E0116013A8A500118EF0BD7
:1008200001188A6E02C001F0D8900132010E011643
:10083000013A01468A500118DF0B01188A6E02C086
:1008400001F0D8900132D8900132010E0116013A20
:10085000014601468A500118BF0B01188A6E02C07A
:1008600001F0D8900132D8900132D8900132010EB7
:100870000116013201328A5001187F0B01188A6E6D
:100880001200046E8A8004380F0B07EC04F08A8291
:10089000060E036E300EE82EFED7032EFCD700D0D6
:1008A0008A9204500F0B07EC04F08A82060E036E46
:1008B000300EE82EFED7032EFCD700D08A9212000D
:1008C000340E056EF20EE82EFED7052EFCD7020E72
:1008D0007FEC04F0280E7FEC04F00C0E7FEC04F0AB
:1008E000060E7FEC04F0010E7FEC04F0060E056EA0
:1008F000300EE82EFED7052EFCD700D01200046E75
:100900008A9004380F0B07EC04F08A82060E036EFF
:10091000300EE82EFED7032EFCD700D08A9204506A
:100920000F0B07EC04F08A82060E036E300EE82EE1
:10093000FED7032EFCD700D08A921200D38CD38A24
:10094000D388D350FC0B0109D36E936A8A6A60EC9A
:1009500004F0010E056E010ECCEC04F0010E056EE4
:10096000B6EC04F0B2EF04F0FEEF3FF0BFEF04F09E
:1009700005C0F6FF0800F55041EC04F0052A05C05B
:10098000F6FF0800F5500009D8A4C9EF04F0CBEF3A
:1009900004F0B8EF04F01200066E0604D8A4D3EFFA
:1009A00004F0D5EF04F0DAEF04F005507F0F076E86
:1009B000DDEF04F00550BF0F076E07507FEC04F029
:1009C0001200000EF86E080EF76E00019EEF04F0A4
:047FFC00E1EF04F0BD
:020000040030CA
:0800000000081F1EFF8181FFB3
:00000001FF
