:107EBA005FEF3FF0620ED36E010E936E8A6A66EF31
:107ECA003FF0000E8A6EDBEC3FF0020E8A6EDBECAE
:107EDA003FF0040E8A6EDBEC3FF0060E8A6EDBEC96
:107EEA003FF0080E8A6EDBEC3FF00A0E8A6EDBEC7E
:107EFA003FF00C0E8A6EDBEC3FF00E0E8A6EDBEC66
:107F0A003FF0100E8A6EDBEC3FF0120E8A6EDBEC4D
:107F1A003FF0140E8A6EDBEC3FF0160E8A6EDBEC35
:107F2A003FF0180E8A6EDBEC3FF01A0E8A6EDBEC1D
:107F3A003FF01C0E8A6EDBEC3FF01E0E8A6EDBEC05
:107F4A003FF08A6ADBEC3FF0CFEC3FF0ADEF3FF059
:107F5A00140E8A6EEEEC3FF00A0E8A6EEEEC3FF0DB
:107F6A008A6ADBEC3FF0D3EC3FF0BCEF3FF0120E35
:107F7A008A6EEEEC3FF00C0E8A6EEEEC3FF01E0EAF
:107F8A008A6EEEEC3FF08A6AEEEC3FF0D7EC3FF0F7
:107F9A0066EF3FF081A066EF3FF0120081A0ADEFDF
:107FAA003FF0120081A0BCEF3FF01200020E606F9A
:107FBA00850E616F960E626F000000000000622F4E
:107FCA00E1EF3FF0612FDFEF3FF0602FDDEF3FF091
:107FDA001200020E606FFA0E616FFA0E626F0000F5
:107FEA000000622FF4EF3FF0612FF2EF3FF0602FB5
:067FFA00F0EF3FF0120061
:020000040030CA
:0400000000091F1EB6
:020005008181F7
:060008000FC00FE00F40E5
:00000001FF
